:03000000020006F5
:03005F0002000399
:030003000200AE4A
:20006200AE82AF83E5975407FD8DF005F0850608850709800BC3E50913F509E50813F50864
:20008200D5F0F2750A05750B4FE50B14FF8F0B70F8E50A14FF8F0A70F0E50824FFFEE50958
:2000A20034FFFF8E088F09EE4F70D8221200C290000F1200621200CF90000F12006280ECF0
:06003500E478FFF6D8FD9F
:200013007900E94400601B7A009000E4780175A000E493F2A308B8000205A0D9F4DAF275AF
:02003300A0FF2C
:20003B007800E84400600A790175A000E4F309D8FC7800E84400600C7900900001E4F0A3C3
:04005B00D8FCD9FAFA
:1E00C20075B1FF75B2007591FF7592002253B1FE43B2015391FE439201C290D2B02200
:0D00060075810B1200E0E58260030200032B
:0400E0007582002203
:00000001FF
