:060000000200090200A14C
:0300620002000693
:030006000200B441
:20006500AE82AF837C007D00C3EC9EED9F502CC007C006C005C00412016AD004D005D006B9
:20008500D007851D90851CB0852092852191851EB2851FB10CBC00D00D80CD22C0E0E597B9
:2000A50070057597028005E59714F597D0E032D2AFD2A8D2885397F8439702E4F508F50943
:2000C500AC08AD09C3EC940FED940050EEAC08E509C40354F8CCC403CC6CCC54F8CC6CFDD3
:2000E500EC2490F582ED3402F583E493F8A3E493F9A3E493FAA3E493FBA3E493FCA3E4936E
:20010500FDA3E493FEA3E493FF888289838AF0EB1201289027101200650508E4B508A10564
:0301250009809DB1
:200290007F00000000000000FF20440A00000000FF30660F00000000FF30666F891004001D
:2002B000FF3066EFCD180601FF3066EFCD18FE01FF3F66EFCD18FE01FF7FEEEFCD18FE01A0
:2002D000FF7FFFEFCD18FE01FF7FFFEFCDF8FF01FF7FFFEFDFF9FF01FF7FFFEFFFFDFF01E1
:1802F000FFFFFFEFFFFDFF01FFFFFFEFFFFFFF01000000000000000024
:06003800E478FFF6D8FD9C
:200016007900E94400601B7A00900313780175A000E493F2A308B8000205A0D9F4DAF2757A
:02003600A0FF29
:2001280085822A85832B85F02CF52D8C2E8D2F8E308F31852A0A852B0B852C0C852D0D8527
:200148002E0E852F0F853010853111751201E4F513F514F515F516F517F518F519F51AF54F
:200168001B22E512550AF522E513550BF523E514550CF524E515550DF525E516550EF526FB
:20018800E517550FF527E5185510F528E5195511F529E52245234524452545264527452854
:2001A80045296044E51BC313FFE51A90030893FEEF90030D93FFF4FD8D218F20EEF4FC7464
:2001C800FB5CF51F74FB5EF51EAA1B5302017B00BA010CBB00098F1D74044CF51C801B8D02
:2001E8001D74044EF51C80127521FF752000751FFB751E00751D00751C04E5122512F522B9
:20020800E51333F523E51433F524E51533F525E51633F526E51733F527E51833F528E51928
:2002280033F529852212852313852414852515852616852717852818852919AF1ABF0426B3
:20024800751A00AE1BBE0B18850A82850B83850CF0E50DAC0EAD0FAE10AF11120128800A0D
:20026800EE04F51B8004EF04F51A90001C75F04022851D90851CB0852092852191851EB235
:04028800851FB122FB
:0B0308000102084080010204081020E0
:20003E007800E84400600A790175A000E4F309D8FC7800E84400600C7900900001E4F0A3C0
:04005E00D8FCD9FAF7
:0D00090075813112028CE582600302000651
:04028C007582002255
:00000001FF
