:0600000002000902007974
:03003800020006BD
:0300060002008C69
:20003B002222AE82AF837C007D00C3EC9EED9F502CC007C006C005C0041201C0D004D0051F
:20005B00D006D007851F90851EB08522928523918520B28521B10CBC00D00D80CD22C0E07D
:20007B00E59770057597028005E59714F597D0E032D2AFD2A8D2885397F8439702E4F508EF
:20009B00F509AC08AD09C3EC941DED940050EEAC08E509C40354F8CCC403CC6CCC54F8CC5A
:2000BB006CFDEC24F6F50AED3402F50B850A82850B83E493F8A3E493F9A3E493FAA3E493C0
:2000DB00FBA3E493FCA3E493FDA3E493FEA3E493FF888289838AF0EB12017E9027101200C7
:2000FB003D850A82850B83E493F8A3E493F9A3E493FAA3E493FBA3E493FCA3E493FDA3E425
:20011B0093FEA3E493FF430310888289838AF0EB12017E90138812003D850A82850B83E436
:20013B0093F8A3E493F9A3E493FAA3E493FBA3E493FCA3E493FDA3E493FEA3E493FF430339
:1C015B0020888289838AF0EB12017E90138812003D0508E4B50802050902009D85
:2002E60000000010000000000000002000000000FFFFFF0F00000000F7FFFF0F0000200098
:20030600F3FFFF0F00003000E3FFFF0F00007000E1FFFF0F00007800C1FFFF0F0000F8001B
:20032600C0FFFF0F0000FC0080FFFF0F0000FC0180FDFF0F0040FC0180F9FF0F00C0FC0158
:2003460080F8FF0F00E0FC0180F0FF0F00E0FD0100F0FF0F00F0FD0100E0FF0F00F0FF010E
:200366000060FF0F00F2FF010020FF0F00F3FF010020FE0F00F7FF010000FE0F80F7FF014E
:200386000000FC0F80FFFF010000F40F90FFFF010000E40FB0FFFF010000E00FB8FFFF01F3
:2003A6000000C00FF8FFFF010000400FFAFFFF010000000FFBFFFF010000000EFFFFFF0114
:1803C6000000004CFFFFFF01000000C8FFFFFF01000000C0FFFFFF0151
:200016007900E94400601B7A009003E9780175A000E493F2A308B8000205A0D9F4DAF275A4
:02003600A0FF29
:2001770090000C75F0402285822C85832D85F02EF52F8C308D318E328F33852C0C852D0D5E
:20019700852E0E852F0F853010853111853212853313751401E4F515F516F517F518F519FA
:2001B700F51AF51BF51CF51D22E514550CF524E515550DF525E516550EF526E517550FF50D
:2001D70027E5185510F528E5195511F529E51A5512F52AE51B5513F52BE5244525452645B0
:2001F7002745284529452A452B6044E51DC313FFE51C9003DE93FEEF9003E393FFF4FD8D14
:20021700238F22EEF4FC74FB5CF52174FB5EF520AA1D5302017B00BA010CBB00098F1F740D
:20023700044CF51E801B8D1F74044EF51E80127523FF7522007521FB752000751F00751E17
:2002570004E5142514F524E51533F525E51633F526E51733F527E51833F528E51933F529C1
:20027700E51A33F52AE51B33F52B852414852515852616852717852818852919852A1A85E9
:200297002B1BAF1CBF0426751C00AE1DBE0B18850C82850D83850EF0E50FAC10AD11AE1237
:2002B700AF1312017E800AEE04F51D8004EF04F51C90001E75F04022851F90851EB085221B
:0B02D700928523918520B28521B12281
:0B03DE0001020840800102040810200A
:0D0009007581331202E2E5826003020006F9
:0402E20075820022FF
:00000001FF
