:03000000020006F5
:03003500020003C3
:0300030002007682
:200038002222AE82AF837C007D00C3EC9EED9F502CC007C006C005C0041201AFD004D00533
:20005800D006D0078527908526B0852A92852B918528B28529B10CBC00D00D80CD22750873
:200078000074E3250840F7E50875F008A424D2F50A740235F0F50B850A82850B83E493F88C
:20009800A3E493F9A3E493FAA3E493FBA3E493FCA3E493FDA3E493FEA3E493FF8882898398
:2000B8008AF0EB12016D904E2012003A75090074FE25095003020161850A82850B83E49389
:2000D800F50CA3E493F50DA3E493F50EA3E493F50FA3E493F510A3E493F511A3E493F51250
:2000F800A3E493F513E50975F008A424C2F582740235F0F583E493F8A3E493F9A3E493FAC1
:20011800A3E493FBA3E493FCA3E493FDA3E493FEA3E493FFE50C4200E50D4201E50E4202B5
:20013800E50F4203E5104204E5114205E5124206E5134207888289838AF0EB12016D9027C4
:0E0158001012003A05090200C70508020079DE
:2002C20000000010000000000000002000000000FFFFFF0F00000000F7FFFF0F00002000BC
:2002E200F3FFFF0F00003000E3FFFF0F00007000E1FFFF0F00007800C1FFFF0F0000F80040
:20030200C0FFFF0F0000FC0080FFFF0F0000FC0180FDFF0F0040FC0180F9FF0F00C0FC017C
:2003220080F8FF0F00E0FC0180F0FF0F00E0FD0100F0FF0F00F0FD0100E0FF0F00F0FF0132
:200342000060FF0F00F2FF010020FF0F00F3FF010020FE0F00F7FF010000FE0F80F7FF0172
:200362000000FC0F80FFFF010000F40F90FFFF010000E40FB0FFFF010000E00FB8FFFF0117
:200382000000C00FF8FFFF010000400FFAFFFF010000000FFBFFFF010000000EFFFFFF0138
:1803A2000000004CFFFFFF01000000C8FFFFFF01000000C0FFFFFF0175
:200013007900E94400601B7A009003C5780175A000E493F2A308B8000205A0D9F4DAF275CB
:02003300A0FF2C
:2001660090001475F0402285823485833585F036F5378C388D398E3A8F3B85341485351507
:20018600853616853717853818853919853A1A853B1B751C01E4F51DF51EF51FF520F5217B
:2001A600F522F523F524F52522E51C5514F52CE51D5515F52DE51E5516F52EE51F5517F5A6
:2001C6002FE5205518F530E5215519F531E522551AF532E523551BF533E52C452D452E4541
:2001E6002F45304531453245336044E525C313FFE5249003BA93FEEF9003BF93FFF4FD8D35
:200206002B8F2AEEF4FC74FB5CF52974FB5EF528AA255302017B00BA010CBB00098F2774EE
:20022600044CF526801B8D2774044EF5268012752BFF752A007529FB7528007527007526E0
:2002460004E51C251CF52CE51D33F52DE51E33F52EE51F33F52FE52033F530E52133F5316A
:20026600E52233F532E52333F533852C1C852D1D852E1E852F1F853020853121853222856A
:200286003323AF24BF0426752400AE25BE0B188514828515838516F0E517AC18AD19AE1AE8
:1802A600AF1B12016D800AEE04F5258004EF04F52490002675F0402253
:0B03BA0001020840800102040810202E
:0D00060075813B1202BEE58260030200031B
:0402BE007582002223
:00000001FF
