:0600000002001102016381
:03000B0002015798
:18006A00E4F509F50AF50BF50CF50DF50EF50FF510F511F51202000E71
:03000E0002017B71
:20008200858234E4F509F50AF50BF50CF50DF50EF50FF510F53574F82535500122E5873034
:2000A200E5047DFF804943C78053C7F843C7038534C3E5352533F5C475C50175C65A75C6B5
:2000C200A500E5C730E4067B017C0080047B007C00EB60067BFF7C008004ABC27C008B05FC
:2000E20053C77F75C50075C60075C3FF75C4FF8D36E4F537F538F539F53AF53BF53CF53D91
:20010200E535C40354F8FF8FF005F0A836A937AA38AB39AC3AAD3BAE3CAF3D8018E828F875
:20012200E933F9EA33FAEB33FBEC33FCED33FDEE33FEEF33FFD5F0E5E84209E9420AEA42C2
:200142000BEB420CEC420DED420EEE420FEF42100535020098C0E0E5127003751201D0E04B
:2001620032C0E0C0D07402B597057597008005E59704F597D0D0D0E0327597025387DFD29C
:20018200AFC2A95389F0538E7FD2A9D2A8D288753300758200120082850908E4F509F50A1E
:2001A200F50BF50CF50DF50EF50FF510F58AF58CC28DD28CE5126045AF110FEFC40354F814
:2001C200F533758200120082850982850A83850BF0E50CAC0DAD0EAE0FAF10120207AE0816
:2001E2007F001EBEFF011FAC117D00ECB50609EDB5070575110080020511751200120249E9
:0502020012035880AF5B
:02036F00F8F99B
:06004000E478FFF6D8FD94
:2002070085823385833485F035F5368C378D388E398F3A85331385341485351585361685B7
:200227003717853818853919853A1A751B01E4F51CF51DF51EF51FF520F521F522F523F5D6
:200247002422E51B5513F52BE51C5514F52CE51D5515F52DE51E5516F52EE51F5517F52F8B
:20026700E5205518F530E5215519F531E522551AF532E52B452C452D452E452F45304531E4
:2002870045326044E524C313FFE52390037193FEEF90037693FFF4FD8D2A8F29EEF4FC7485
:2002A700FB5CF52874FB5EF527AA245302017B00BA010CBB00098F2674044CF525801B8DF5
:2002C7002674044EF5258012752AFF7529007528FB752700752600752504E51B251BF52B76
:2002E700E51C33F52CE51D33F52DE51E33F52EE51F33F52FE52033F530E52133F531E522D4
:2003070033F532852B1B852C1C852D1D852E1E852F1F853020853121853222AF23BF042631
:20032700752300AE24BE0B188513828514838515F0E516AC17AD18AE19AF1A120207800AF3
:20034700EE04F5248004EF04F52390002575F040228526908525B0852992852A918527B20D
:040367008528B12212
:0B037100010208408001020408102077
:20001E007900E94400601B7A0090037C780175A000E493F2A308B8000205A0D9F4DAF27509
:02003E00A0FF21
:200046007800E84400600A790175A000E4F309D8FC7800E84400600C7900900001E4F0A3B8
:04006600D8FCD9FAEF
:0D00110075813D12036BE582600302000E55
:04036B007582002275
:00000001FF
