:03000000020006F5
:03005F0002000399
:0300030002009D5B
:20006200AE82AF83E5975407FD8DF005F08007C3EF13FFEE13FED5F0F67C647D0200000072
:200082008C028D031CBCFF011DEA4B70F08E048F051EBEFF011FEC4D70DF221200B1900098
:0F00A2000F1200621200BE90000F12006280EC7D
:06003500E478FFF6D8FD9F
:200013007900E94400601B7A009000D3780175A000E493F2A308B8000205A0D9F4DAF275C0
:02003300A0FF2C
:20003B007800E84400600A790175A000E4F309D8FC7800E84400600C7900900001E4F0A3C3
:04005B00D8FCD9FAFA
:1E00B10075B1FF75B2007591FF7592002253B1FE43B2015391FE439201C290D2B02211
:0D0006007581071200CFE582600302000340
:0400CF007582002214
:00000001FF
