:0400000002001132B7
:03000B0002006D83
:03006A0002000E83
:03000E000200BE2F
:20006D00C020C0E0C0F0C082C083C007C006C005C004C003C002C001C000C0D075D00012BB
:20008D0001308534908533B08537928538918535B28536B1D0D0D000D001D002D003D00443
:2000AD00D005D006D007D083D082D0F0D0E0D0203290CF3E75F09974387C327DE77EF97F2B
:1A00CD00001200EED2AFD2A95389F0438E80758A00758CF5C28DD28C80FEE0
:06004000E478FFF6D8FD94
:20001E007900E94400601B7A0090024E780175A000E493F2A308B8000205A0D9F4DAF27538
:02003E00A0FF21
:2000E70090002175F0402285820885830985F00AF50B8C0C8D0D8E0E8F0F85082185092218
:20010700850A23850B24850C25850D26850E27850F28752901E4F52AF52BF52CF52DF52E66
:20012700F52FF530F531F53222E5295521F539E52A5522F53AE52B5523F53BE52C5524F562
:200147003CE52D5525F53DE52E5526F53EE52F5527F53FE5305528F540E539453A453B45F0
:200167003C453D453E453F45406044E532C313FFE53190024393FEEF90024893FFF4FD8D49
:20018700388F37EEF4FC74FB5CF53674FB5EF535AA325302017B00BA010CBB00098F347420
:2001A700044CF533801B8D3474044EF53380127538FF7537007536FB7535007534007533EB
:2001C70004E5292529F539E52A33F53AE52B33F53BE52C33F53CE52D33F53DE52E33F53E41
:2001E700E52F33F53FE53033F540853929853A2A853B2B853C2C853D2D853E2E853F2F8500
:200207004030AF31BF0426753100AE32BE0B188521828522838523F0E524AC25AD26AE27CB
:18022700AF281200EE800AEE04F5328004EF04F53190003375F040221E
:0B0243000102084080010204081020A6
:200046007800E84400600A790175A000E4F309D8FC7800E84400600C7900900001E4F0A3B8
:04006600D8FCD9FAEF
:0D00110075814012023FE582600302000E7F
:04023F0075820022A2
:00000001FF
