:03000000020006F5
:03003500020003C3
:0300030002007682
:200038002222AE82AF837C007D00C3EC9EED9F502CC007C006C005C0041201CBD004D00517
:20005800D006D0078528908527B0852B92852C918529B2852AB10CBC00D00D80CD22E4F511
:2000780008F509AC08AD09C3EC941DED940050EEAC08E509C40354F8CCC403CC6CCC54F841
:20009800CC6CFDEC24EEF50BED3402F50C850B82850C83E493F8A3E493F9A3E493FAA3E4AE
:2000B80093FBA3E493FCA3E493FDA3E493FEA3E493FF888289838AF0EB120189904E201215
:2000D800003A750A0074FE250A5003020177850B82850C83E493F50DA3E493F50EA3E4930B
:2000F800F50FA3E493F510A3E493F511A3E493F512A3E493F513A3E493F514E50A75F008E3
:20011800A424DEF582740235F0F583E493F8A3E493F9A3E493FAA3E493FBA3E493FCA3E44F
:2001380093FDA3E493FEA3E493FFE50D4200E50E4201E50F4202E5104203E5114204E512D7
:200158004205E5134206E5144207888289838AF0EB12018990271012003A050A0200DD05A1
:0A01780008E4B50802050902007B47
:2002DE0000000010000000000000002000000000FFFFFF0F00000000F7FFFF0F00002000A0
:2002FE00F3FFFF0F00003000E3FFFF0F00007000E1FFFF0F00007800C1FFFF0F0000F80024
:20031E00C0FFFF0F0000FC0080FFFF0F0000FC0180FDFF0F0040FC0180F9FF0F00C0FC0160
:20033E0080F8FF0F00E0FC0180F0FF0F00E0FD0100F0FF0F00F0FD0100E0FF0F00F0FF0116
:20035E000060FF0F00F2FF010020FF0F00F3FF010020FE0F00F7FF010000FE0F80F7FF0156
:20037E000000FC0F80FFFF010000F40F90FFFF010000E40FB0FFFF010000E00FB8FFFF01FB
:20039E000000C00FF8FFFF010000400FFAFFFF010000000FFBFFFF010000000EFFFFFF011C
:1803BE000000004CFFFFFF01000000C8FFFFFF01000000C0FFFFFF0159
:200013007900E94400601B7A009003E1780175A000E493F2A308B8000205A0D9F4DAF275AF
:02003300A0FF2C
:2001820090001575F0402285823585833685F037F5388C398D3A8E3B8F3C853515853616DE
:2001A200853717853818853919853A1A853B1B853C1C751D01E4F51EF51FF520F521F5224D
:2001C200F523F524F525F52622E51D5515F52DE51E5516F52EE51F5517F52FE5205518F57B
:2001E20030E5215519F531E522551AF532E523551BF533E524551CF534E52D452E452F4515
:200202003045314532453345346044E526C313FFE5259003D693FEEF9003DB93FFF4FD8DD9
:200222002C8F2BEEF4FC74FB5CF52A74FB5EF529AA265302017B00BA010CBB00098F2874CC
:20024200044CF527801B8D2874044EF5278012752CFF752B00752AFB7529007528007527BB
:2002620004E51D251DF52DE51E33F52EE51F33F52FE52033F530E52133F531E52233F53241
:20028200E52333F533E52433F534852D1D852E1E852F1F853020853121853222853323853C
:2002A2003424AF25BF0426752500AE26BE0B188515828516838517F0E518AC19AD1AAE1BC0
:1802C200AF1C120189800AEE04F5268004EF04F52590002775F0402217
:0B03D600010208408001020408102012
:0D00060075813C1202DAE5826003020003FE
:0402DA007582002207
:00000001FF
