:03000000020006F5
:03003500020003C3
:0300030002007682
:200038002222AE82AF837C007D00C3EC9EED9F502CC007C006C005C0041201A8D004D0053A
:20005800D006D0078527908526B0852A92852B918528B28529B10CBC00D00D80CD22750873
:200078000074E3250840F7E50875F008A424DEF50A740235F0F50B850A82850B83E493F880
:20009800A3E493F9A3E493FAA3E493FBA3E493FCA3E493FDA3E493FEA3E493FF8882898398
:2000B8008AF0EB120166904E2012003A75090074FE25095003020161850A82850B83E49390
:2000D800F50CA3E493F50DA3E493F50EA3E493F50FA3E493F510A3E493F511A3E493F51250
:2000F800A3E493F513E50975F008A424CEF582740235F0F583E493F8A3E493F9A3E493FAB5
:20011800A3E493FBA3E493FCA3E493FDA3E493FEA3E493FFE50C4200E50D4201E50E4202B5
:20013800E50F4203E5104204E5114205E5124206E5134207888289838AF0EB1201669027CB
:0E0158001012003A05090200C70508020079DE
:2002CE0000000010000000000000002000000000FFFFFF0F00000000F7FFFF0F00002000B0
:2002EE00F3FFFF0F00003000E3FFFF0F00007000E1FFFF0F00007800C1FFFF0F0000F80034
:20030E00C0FFFF0F0000FC0080FFFF0F0000FC0180FDFF0F0040FC0180F9FF0F00C0FC0170
:20032E0080F8FF0F00E0FC0180F0FF0F00E0FD0100F0FF0F00F0FD0100E0FF0F00F0FF0126
:20034E000060FF0F00F2FF010020FF0F00F3FF010020FE0F00F7FF010000FE0F80F7FF0166
:20036E000000FC0F80FFFF010000F40F90FFFF010000E40FB0FFFF010000E00FB8FFFF010B
:20038E000000C00FF8FFFF010000400FFAFFFF010000000FFBFFFF010000000EFFFFFF012C
:1803AE000000004CFFFFFF01000000C8FFFFFF01000000C0FFFFFF0169
:200013007900E94400601B7A009003D1780175A000E493F2A308B8000205A0D9F4DAF275BF
:02003300A0FF2C
:2001660085823485833585F036F5378C388D398E3A8F3B8534148535158536168537178549
:200186003818853919853A1A853B1B751C01E4F51DF51EF51FF520F521F522F523F524F567
:2001A6002522E51C5514F52CE51D5515F52DE51E5516F52EE51F5517F52FE5205518F5301D
:2001C600E5215519F531E522551AF532E523551BF533E52C452D452E452F45304531453276
:2001E60045336044E525C313FFE5249003C693FEEF9003CB93FFF4FD8D2B8F2AEEF4FC7478
:20020600FB5CF52974FB5EF528AA255302017B00BA010CBB00098F2774044CF526801B8D91
:200226002774044EF5268012752BFF752A007529FB752800752700752604E51C251CF52C0C
:20024600E51D33F52DE51E33F52EE51F33F52FE52033F530E52133F531E52233F532E52368
:2002660033F533852C1C852D1D852E1E852F1F853020853121853222853323AF24BF0426C1
:20028600752400AE25BE0B188514828515838516F0E517AC18AD19AE1AAF1B120166800A2D
:2002A600EE04F5258004EF04F52490002675F040228527908526B0852A92852B918528B2A7
:0402C6008529B122B3
:0B03C600010208408001020408102022
:0D00060075813B1202CAE58260030200030F
:0402CA007582002217
:00000001FF
