:0400000002001132B7
:03000B0002006F81
:05006A00C20002000EBF
:03000E0002007D70
:20006F0030000512009380031200A0B20032D2AFD2A95389F0438E80758A00758C00C28D16
:04008F00D28C80FE91
:06004000E478FFF6D8FD94
:20001E007900E94400601B7A009000B5780175A000E493F2A308B8000205A0D9F4DAF275D3
:02003E00A0FF21
:200046007800E84400600A790175A000E4F309D8FC7800E84400600C7900900001E4F0A3B8
:04006600D8FCD9FAEF
:1E00930075B1FF75B2007591FF7592002253B1FE43B2015391FE439201C290D2B0222F
:0D0011007581201200B1E582600302000E2F
:0400B1007582002232
:00000001FF
