:03000000020006F5
:03005F0002000399
:0300030002006296
:2000620090CF3E75F09974387C327DE77EF97F0012008C1200CE851B90851AB0851E928578
:0A0082001F91851CB2851DB180E9B5
:06003500E478FFF6D8FD9F
:200013007900E94400601B7A009001FF780175A000E493F2A308B8000205A0D9F4DAF27593
:02003300A0FF2C
:20008C0085822885832985F02AF52B8C2C8D2D8E2E8F2F852808852909852A0A852B0B85E4
:2000AC002C0C852D0D852E0E852F0F751001E4F511F512F513F514F515F516F517F518F50E
:2000CC001922E5105508F520E5115509F521E512550AF522E513550BF523E514550CF524B8
:2000EC00E515550DF525E516550EF526E517550FF527E52045214522452345244525452611
:20010C0045276044E519C313FFE5189001F493FEEF9001F993FFF4FD8D1F8F1EEEF4FC7436
:20012C00FB5CF51D74FB5EF51CAA195302017B00BA010CBB00098F1B74044CF51A801B8DA8
:20014C001B74044EF51A8012751FFF751E00751DFB751C00751B00751A04E5102510F5206B
:20016C00E51133F521E51233F522E51333F523E51433F524E51533F525E51633F526E517DF
:20018C0033F527852010852111852212852313852414852515852616852717AF18BF042674
:2001AC00751800AE19BE0B18850882850983850AF0E50BAC0CAD0DAE0EAF0F12008C800A5B
:2001CC00EE04F5198004EF04F51890001A75F04022851B90851AB0851E92851F91851CB2E2
:0401EC00851DB1229A
:0B01F4000102084080010204081020F6
:20003B007800E84400600A790175A000E4F309D8FC7800E84400600C7900900001E4F0A3C3
:04005B00D8FCD9FAFA
:0D00060075812F1201F0E5826003020003F6
:0401F00075820022F2
:00000001FF
