:0400000002001132B7
:03000B0002007080
:06006A0075080002000E03
:03000E0002009558
:20007000C0E0C082C083C0D0E5089000C793F5B07404B5080575080080020508D0D0D08306
:20009000D082D0E03275B10075B2FF75B0007591FF7592005391FE439201759000D2AFD28F
:1300B000A95389F0438E80758A00758C40C28DD28C80FE0C
:0500C700010208408069
:06004000E478FFF6D8FD94
:20001E007900E94400601B7A009000CC780175A000E493F2A308B8000205A0D9F4DAF275BC
:02003E00A0FF21
:200046007800E84400600A790175A000E4F309D8FC7800E84400600C7900900001E4F0A3B8
:04006600D8FCD9FAEF
:0D0011007581081200C3E582600302000E35
:0400C3007582002220
:00000001FF
