:03000000020006F5
:03005F0002000399
:0300030002006296
:2000620090CF3E75F09974387C327DE77EF97F001200931200D5851B90851AB0851E92856A
:0A0082001F91851CB2851DB180E9B5
:06003500E478FFF6D8FD9F
:200013007900E94400601B7A009001F3780175A000E493F2A308B8000205A0D9F4DAF2759F
:02003300A0FF2C
:20008C0090000875F0402285822885832985F02AF52B8C2C8D2D8E2E8F2F8528088529097E
:2000AC00852A0A852B0B852C0C852D0D852E0E852F0F751001E4F511F512F513F514F5152E
:2000CC00F516F517F518F51922E5105508F520E5115509F521E512550AF522E513550BF535
:2000EC0023E514550CF524E515550DF525E516550EF526E517550FF527E5204521452245DC
:20010C002345244525452645276044E519C313FFE5189001E893FEEF9001ED93FFF4FD8D0B
:20012C001F8F1EEEF4FC74FB5CF51D74FB5EF51CAA195302017B00BA010CBB00098F1B7411
:20014C00044CF51A801B8D1B74044EF51A8012751FFF751E00751DFB751C00751B00751A27
:20016C0004E5102510F520E51133F521E51233F522E51333F523E51433F524E51533F525E1
:20018C00E51633F526E51733F527852010852111852212852313852414852515852616851D
:2001AC002717AF18BF0426751800AE19BE0B18850882850983850AF0E50BAC0CAD0DAE0E53
:1801CC00AF0F120093800AEE04F5198004EF04F51890001A75F0402239
:0B01E800010208408001020408102002
:20003B007800E84400600A790175A000E4F309D8FC7800E84400600C7900900001E4F0A3C3
:04005B00D8FCD9FAFA
:0D00060075812F1201E4E582600302000302
:0401E40075820022FE
:00000001FF
