:0600000002001102015D87
:03000B0002015996
:1A006A00E4F509F50AF50BF50CF50DF50EF50FF510F511F512F51302000E67
:03000E0002015E8E
:20008400858235E4F509F50AF50BF50CF50DF50EF50FF510F53674F82536500122E587302F
:2000A400E5047DFF804943C78053C7F843C7038535C3E5362534F5C475C50175C65A75C6B0
:2000C400A500E5C730E4067B017C0080047B007C00EB60067BFF7C008004ABC27C008B05FA
:2000E40053C77F75C50075C60075C3FF75C4FF8D37E4F538F539F53AF53BF53CF53DF53E87
:20010400E536C40354F8FF8FF005F0A837A938AA39AB3AAC3BAD3CAE3DAF3E8018E828F86A
:20012400E933F9EA33FAEB33FBEC33FCED33FDEE33FEEF33FFD5F0E5E84209E9420AEA42C0
:200144000BEB420CEC420DED420EEE420FEF4210053602009A75130132325387DFD2AFC29F
:20016400A95389F0538E7FD2A9D2A8D288753400758200120084850908E4F509F50AF50BAA
:20018400F50CF50DF50EF50FF510900000E4F5F0FCFDFEFF12020B758A00758C00C28DD2BD
:2001A4008CE513605A0511E4B511020512AE087F00EEB51111EFB5120DAE087F001EBEFF57
:2001C400011F8E118F12AE11AF120EBE00010FEFC40354F8CEC403CE6ECE54F8CE6EFF8EA9
:2001E400348F82120084850982850A83850BF0E50CAC0DAD0EAE0FAF1012020B75130012E4
:07020400024D12035C809A19
:02037300F8F997
:06004000E478FFF6D8FD94
:20020B0085823485833585F036F5378C388D398E3A8F3B85341485351585361685371785A3
:20022B003818853919853A1A853B1B751C01E4F51DF51EF51FF520F521F522F523F524F5C1
:20024B002522E51C5514F52CE51D5515F52DE51E5516F52EE51F5517F52FE5205518F53077
:20026B00E5215519F531E522551AF532E523551BF533E52C452D452E452F453045314532D0
:20028B0045336044E525C313FFE52490037593FEEF90037A93FFF4FD8D2B8F2AEEF4FC7474
:2002AB00FB5CF52974FB5EF528AA255302017B00BA010CBB00098F2774044CF526801B8DEC
:2002CB002774044EF5268012752BFF752A007529FB752800752700752604E51C251CF52C67
:2002EB00E51D33F52DE51E33F52EE51F33F52FE52033F530E52133F531E52233F532E523C3
:20030B0033F533852C1C852D1D852E1E852F1F853020853121853222853323AF24BF04261B
:20032B00752400AE25BE0B188514828515838516F0E517AC18AD19AE1AAF1B12020B800AE1
:20034B00EE04F5258004EF04F52490002675F040228527908526B0852A92852B918528B201
:04036B008529B1220D
:0B037500010208408001020408102073
:20001E007900E94400601B7A00900380780175A000E493F2A308B8000205A0D9F4DAF27505
:02003E00A0FF21
:200046007800E84400600A790175A000E4F309D8FC7800E84400600C7900900001E4F0A3B8
:04006600D8FCD9FAEF
:0D00110075813E12036FE582600302000E50
:04036F007582002271
:00000001FF
