:060000000200090200A14C
:0300620002000693
:030006000200B441
:20006500AE82AF837C007D00C3EC9EED9F502CC007C006C005C004120171D004D005D006B2
:20008500D007851D90851CB0852092852191851EB2851FB10CBC00D00D80CD22C0E0E597B9
:2000A50070057597028005E59714F597D0E032D2AFD2A8D2885397F8439702E4F508F50943
:2000C500AC08AD09C3EC940FED940050EEAC08E509C40354F8CCC403CC6CCC54F8CC6CFDD3
:2000E500EC2484F582ED3402F583E493F8A3E493F9A3E493FAA3E493FBA3E493FCA3E4937A
:20010500FDA3E493FEA3E493FF888289838AF0EB12012F9027101200650508E4B508A1055D
:0301250009809DB1
:200284007F00000000000000FF20440A00000000FF30660F00000000FF30666F8910040029
:2002A400FF3066EFCD180601FF3066EFCD18FE01FF3F66EFCD18FE01FF7FEEEFCD18FE01AC
:2002C400FF7FFFEFCD18FE01FF7FFFEFCDF8FF01FF7FFFEFDFF9FF01FF7FFFEFFFFDFF01ED
:1802E400FFFFFFEFFFFDFF01FFFFFFEFFFFFFF01000000000000000030
:06003800E478FFF6D8FD9C
:200016007900E94400601B7A00900307780175A000E493F2A308B8000205A0D9F4DAF27586
:02003600A0FF29
:2001280090000A75F0402285822A85832B85F02CF52D8C2E8D2F8E308F31852A0A852B0BC7
:20014800852C0C852D0D852E0E852F0F853010853111751201E4F513F514F515F516F5176D
:20016800F518F519F51AF51B22E512550AF522E513550BF523E514550CF524E515550DF57A
:2001880025E516550EF526E517550FF527E5185510F528E5195511F529E52245234524451F
:2001A8002545264527452845296044E51BC313FFE51A9002FC93FEEF90030193FFF4FD8D36
:2001C800218F20EEF4FC74FB5CF51F74FB5EF51EAA1B5302017B00BA010CBB00098F1D7469
:2001E800044CF51C801B8D1D74044EF51C80127521FF752000751FFB751E00751D00751C79
:2002080004E5122512F522E51333F523E51433F524E51533F525E51633F526E51733F5272A
:20022800E51833F528E51933F529852212852313852414852515852616852717852818855C
:200248002919AF1ABF0426751A00AE1BBE0B18850A82850B83850CF0E50DAC0EAD0FAE109E
:18026800AF1112012F800AEE04F51B8004EF04F51A90001C75F04022F7
:0B02FC000102084080010204081020ED
:20003E007800E84400600A790175A000E4F309D8FC7800E84400600C7900900001E4F0A3C0
:04005E00D8FCD9FAF7
:0D000900758131120280E58260030200065D
:040280007582002261
:00000001FF
